{
  "_format": "hh-sol-artifact-1",
  "contractName": "TokenizedTimeTracking",
  "sourceName": "contracts/contract.sol",
  "abi": [
    {
      "inputs": [],
      "stateMutability": "nonpayable",
      "type": "constructor"
    },
    {
      "anonymous": false,
      "inputs": [
        {
          "indexed": false,
          "internalType": "uint256",
          "name": "projectId",
          "type": "uint256"
        },
        {
          "indexed": false,
          "internalType": "address",
          "name": "freelancer",
          "type": "address"
        }
      ],
      "name": "FreelancerAdded",
      "type": "event"
    },
    {
      "anonymous": false,
      "inputs": [
        {
          "indexed": false,
          "internalType": "address",
          "name": "freelancer",
          "type": "address"
        },
        {
          "indexed": false,
          "internalType": "uint256",
          "name": "projectId",
          "type": "uint256"
        },
        {
          "indexed": false,
          "internalType": "uint256",
          "name": "amount",
          "type": "uint256"
        }
      ],
      "name": "PaymentSent",
      "type": "event"
    },
    {
      "anonymous": false,
      "inputs": [
        {
          "indexed": false,
          "internalType": "uint256",
          "name": "projectId",
          "type": "uint256"
        },
        {
          "indexed": false,
          "internalType": "address",
          "name": "client",
          "type": "address"
        },
        {
          "indexed": false,
          "internalType": "string",
          "name": "name",
          "type": "string"
        }
      ],
      "name": "ProjectCreated",
      "type": "event"
    },
    {
      "anonymous": false,
      "inputs": [
        {
          "indexed": false,
          "internalType": "address",
          "name": "freelancer",
          "type": "address"
        },
        {
          "indexed": false,
          "internalType": "uint256",
          "name": "projectId",
          "type": "uint256"
        },
        {
          "indexed": false,
          "internalType": "uint256",
          "name": "hoursWorked",
          "type": "uint256"
        },
        {
          "indexed": false,
          "internalType": "uint256",
          "name": "minutesWorked",
          "type": "uint256"
        }
      ],
      "name": "TimeLogged",
      "type": "event"
    },
    {
      "inputs": [
        {
          "internalType": "uint256",
          "name": "_projectId",
          "type": "uint256"
        },
        {
          "internalType": "address",
          "name": "_freelancer",
          "type": "address"
        }
      ],
      "name": "addFreelancer",
      "outputs": [],
      "stateMutability": "nonpayable",
      "type": "function"
    },
    {
      "inputs": [
        {
          "internalType": "string",
          "name": "_name",
          "type": "string"
        },
        {
          "internalType": "uint256",
          "name": "_hourlyRate",
          "type": "uint256"
        }
      ],
      "name": "createProject",
      "outputs": [],
      "stateMutability": "nonpayable",
      "type": "function"
    },
    {
      "inputs": [
        {
          "internalType": "address",
          "name": "",
          "type": "address"
        },
        {
          "internalType": "uint256",
          "name": "",
          "type": "uint256"
        }
      ],
      "name": "freelancerTimeLogs",
      "outputs": [
        {
          "internalType": "uint256",
          "name": "projectId",
          "type": "uint256"
        },
        {
          "internalType": "uint256",
          "name": "hoursWorked",
          "type": "uint256"
        },
        {
          "internalType": "uint256",
          "name": "minutesWorked",
          "type": "uint256"
        },
        {
          "internalType": "string",
          "name": "description",
          "type": "string"
        },
        {
          "internalType": "uint256",
          "name": "timestamp",
          "type": "uint256"
        },
        {
          "internalType": "bool",
          "name": "isPaid",
          "type": "bool"
        }
      ],
      "stateMutability": "view",
      "type": "function"
    },
    {
      "inputs": [
        {
          "internalType": "uint256",
          "name": "_projectId",
          "type": "uint256"
        },
        {
          "internalType": "uint256",
          "name": "_hours",
          "type": "uint256"
        },
        {
          "internalType": "uint256",
          "name": "_minutes",
          "type": "uint256"
        },
        {
          "internalType": "string",
          "name": "_description",
          "type": "string"
        }
      ],
      "name": "logTime",
      "outputs": [],
      "stateMutability": "nonpayable",
      "type": "function"
    },
    {
      "inputs": [],
      "name": "owner",
      "outputs": [
        {
          "internalType": "address",
          "name": "",
          "type": "address"
        }
      ],
      "stateMutability": "view",
      "type": "function"
    },
    {
      "inputs": [
        {
          "internalType": "address",
          "name": "_freelancer",
          "type": "address"
        },
        {
          "internalType": "uint256",
          "name": "_logIndex",
          "type": "uint256"
        }
      ],
      "name": "payFreelancer",
      "outputs": [],
      "stateMutability": "payable",
      "type": "function"
    },
    {
      "inputs": [],
      "name": "platformFeePercentage",
      "outputs": [
        {
          "internalType": "uint256",
          "name": "",
          "type": "uint256"
        }
      ],
      "stateMutability": "view",
      "type": "function"
    },
    {
      "inputs": [],
      "name": "projectCounter",
      "outputs": [
        {
          "internalType": "uint256",
          "name": "",
          "type": "uint256"
        }
      ],
      "stateMutability": "view",
      "type": "function"
    },
    {
      "inputs": [
        {
          "internalType": "uint256",
          "name": "",
          "type": "uint256"
        },
        {
          "internalType": "uint256",
          "name": "",
          "type": "uint256"
        }
      ],
      "name": "projectFreelancers",
      "outputs": [
        {
          "internalType": "address",
          "name": "",
          "type": "address"
        }
      ],
      "stateMutability": "view",
      "type": "function"
    },
    {
      "inputs": [
        {
          "internalType": "uint256",
          "name": "",
          "type": "uint256"
        }
      ],
      "name": "projects",
      "outputs": [
        {
          "internalType": "address",
          "name": "client",
          "type": "address"
        },
        {
          "internalType": "string",
          "name": "name",
          "type": "string"
        },
        {
          "internalType": "uint256",
          "name": "hourlyRate",
          "type": "uint256"
        },
        {
          "internalType": "bool",
          "name": "isActive",
          "type": "bool"
        }
      ],
      "stateMutability": "view",
      "type": "function"
    },
    {
      "inputs": [
        {
          "internalType": "uint256",
          "name": "_newFee",
          "type": "uint256"
        }
      ],
      "name": "updatePlatformFee",
      "outputs": [],
      "stateMutability": "nonpayable",
      "type": "function"
    },
    {
      "inputs": [],
      "name": "withdraw",
      "outputs": [],
      "stateMutability": "nonpayable",
      "type": "function"
    },
    {
      "stateMutability": "payable",
      "type": "receive"
    }
  ],
  "bytecode": "0x60806040526101f4600255348015610015575f80fd5b505f80546001600160a01b03191633179055611253806100345f395ff3fe6080604052600436106100a8575f3560e01c8063aa0b598811610062578063aa0b5988146101a6578063c7fdb186146101c5578063cdd78cfc146101e4578063d46bbe2614610207578063f8a518ed14610226578063faf553c31461023b575f80fd5b8063107046bd146100b35780631a24323d146100eb5780631c1074dc1461011c5780633ccfd60b1461013d5780638da5cb5b1461015157806391754a5d14610187575f80fd5b366100af57005b5f80fd5b3480156100be575f80fd5b506100d26100cd366004610d94565b61024e565b6040516100e29493929190610dee565b60405180910390f35b3480156100f6575f80fd5b5061010a610105366004610e44565b61030a565b6040516100e296959493929190610e6c565b348015610127575f80fd5b5061013b610136366004610eef565b6103e6565b005b348015610148575f80fd5b5061013b6106c8565b34801561015c575f80fd5b505f5461016f906001600160a01b031681565b6040516001600160a01b0390911681526020016100e2565b348015610192575f80fd5b5061013b6101a1366004610f4b565b610750565b3480156101b1575f80fd5b5061013b6101c0366004610d94565b6108ff565b3480156101d0575f80fd5b5061016f6101df366004610f93565b61098e565b3480156101ef575f80fd5b506101f960025481565b6040519081526020016100e2565b348015610212575f80fd5b5061013b610221366004610fb3565b6109c2565b348015610231575f80fd5b506101f960015481565b61013b610249366004610e44565b610b31565b60036020525f9081526040902080546001820180546001600160a01b03909216929161027990610fdd565b80601f01602080910402602001604051908101604052809291908181526020018280546102a590610fdd565b80156102f05780601f106102c7576101008083540402835291602001916102f0565b820191905f5260205f20905b8154815290600101906020018083116102d357829003601f168201915b50505050600283015460039093015491929160ff16905084565b6004602052815f5260405f208181548110610323575f80fd5b905f5260205f2090600602015f9150915050805f01549080600101549080600201549080600301805461035590610fdd565b80601f016020809104026020016040519081016040528092919081815260200182805461038190610fdd565b80156103cc5780601f106103a3576101008083540402835291602001916103cc565b820191905f5260205f20905b8154815290600101906020018083116103af57829003601f168201915b50505050600483015460059093015491929160ff16905086565b5f8411806103f357505f83115b6104395760405162461bcd60e51b81526020600482015260126024820152714d757374206c6f6720736f6d652074696d6560701b60448201526064015b60405180910390fd5b603c83106104805760405162461bcd60e51b815260206004820152601460248201527304d696e75746573206d757374206265203c2036360641b6044820152606401610430565b5f858152600360208190526040909120015460ff166104d45760405162461bcd60e51b815260206004820152601060248201526f50726f6a65637420696e61637469766560801b6044820152606401610430565b5f805b5f87815260056020526040902054811015610538575f87815260056020526040902080543391908390811061050e5761050e611015565b5f918252602090912001546001600160a01b0316036105305760019150610538565b6001016104d7565b50806105865760405162461bcd60e51b815260206004820152601c60248201527f4e6f742061737369676e656420746f20746869732070726f6a656374000000006044820152606401610430565b60045f336001600160a01b03166001600160a01b031681526020019081526020015f206040518060c0016040528088815260200187815260200186815260200185858080601f0160208091040260200160405190810160405280939291908181526020018383808284375f92018290525093855250504260208085019190915260409384018390528554600181810188559684529281902085516006909402019283558401519482019490945590820151600282015560608201519192509060038201906106549082611089565b50608082810151600483015560a0909201516005909101805460ff19169115159190911790556040805133815260208101899052908101879052606081018690527f0590b406b58ce60b1765cf4d3d8494efa6a183b5e89d63039606e6f3b166e2e2910160405180910390a1505050505050565b5f546001600160a01b031633146107165760405162461bcd60e51b81526020600482015260126024820152712737ba1031b7b73a3930b1ba1037bbb732b960711b6044820152606401610430565b5f80546040516001600160a01b03909116914780156108fc02929091818181858888f1935050505015801561074d573d5f803e3d5ffd5b50565b816107955760405162461bcd60e51b8152602060048201526015602482015274141c9bda9958dd081b985b59481c995c5d5a5c9959605a1b6044820152606401610430565b5f81116107e45760405162461bcd60e51b815260206004820152601760248201527f486f75726c792072617465206d757374206265203e20300000000000000000006044820152606401610430565b6040518060800160405280336001600160a01b0316815260200184848080601f0160208091040260200160405190810160405280939291908181526020018383808284375f920182905250938552505050602080830185905260016040938401819052805483526003825292909120835181546001600160a01b0319166001600160a01b039091161781559083015190918201906108829082611089565b5060408281015160028301556060909201516003909101805460ff191691151591909117905560015490517f9d9ec461f162f3f4fdb9f6d189bfe13c59e48d8acd23a4c3bfcf7cc0fe4e84ed916108de91339087908790611149565b60405180910390a160018054905f6108f5836111a3565b9190505550505050565b5f546001600160a01b0316331461094d5760405162461bcd60e51b81526020600482015260126024820152712737ba1031b7b73a3930b1ba1037bbb732b960711b6044820152606401610430565b6103e88111156109895760405162461bcd60e51b81526020600482015260076024820152664d61782031302560c81b6044820152606401610430565b600255565b6005602052815f5260405f2081815481106109a7575f80fd5b5f918252602090912001546001600160a01b03169150829050565b5f82815260036020526040902080546001600160a01b03163314610a285760405162461bcd60e51b815260206004820152601f60248201527f4f6e6c7920636c69656e742063616e2061646420667265656c616e63657273006044820152606401610430565b600381015460ff16610a6f5760405162461bcd60e51b815260206004820152601060248201526f50726f6a65637420696e61637469766560801b6044820152606401610430565b6001600160a01b038216610aba5760405162461bcd60e51b815260206004820152601260248201527124b73b30b634b210333932b2b630b731b2b960711b6044820152606401610430565b5f83815260056020908152604080832080546001810182559084529282902090920180546001600160a01b0319166001600160a01b0386169081179091558251868152918201527f5c303e3998d0902a41769a5f1aa0e21138787aa43d546eb03db94302502754b2910160405180910390a1505050565b6001600160a01b0382165f908152600460205260408120805483908110610b5a57610b5a611015565b5f9182526020808320600690920290910180548352600390915260409091208054919250906001600160a01b03163314610bcc5760405162461bcd60e51b81526020600482015260136024820152724f6e6c7920636c69656e742063616e2070617960681b6044820152606401610430565b600582015460ff1615610c105760405162461bcd60e51b815260206004820152600c60248201526b105b1c9958591e481c185a5960a21b6044820152606401610430565b5f82600201548360010154603c610c2791906111bb565b610c3191906111d8565b90505f603c828460020154610c4691906111bb565b610c5091906111eb565b90505f61271060025483610c6491906111bb565b610c6e91906111eb565b90505f610c7b828461120a565b905082341015610cc45760405162461bcd60e51b8152602060048201526014602482015273125b9cdd59999a58da595b9d081c185e5b595b9d60621b6044820152606401610430565b60058601805460ff191660011790556040516001600160a01b0389169082156108fc029083905f818181858888f19350505050158015610d06573d5f803e3d5ffd5b505f80546040516001600160a01b039091169184156108fc02918591818181858888f19350505050158015610d3d573d5f803e3d5ffd5b508554604080516001600160a01b038b168152602081019290925281018490527f07d56d06d59e708b4db4f68fd102036f1f8441c3f1ce450e350c21fed38d02879060600160405180910390a15050505050505050565b5f60208284031215610da4575f80fd5b5035919050565b5f81518084525f5b81811015610dcf57602081850181015186830182015201610db3565b505f602082860101526020601f19601f83011685010191505092915050565b6001600160a01b03851681526080602082018190525f90610e1190830186610dab565b60408301949094525090151560609091015292915050565b80356001600160a01b0381168114610e3f575f80fd5b919050565b5f8060408385031215610e55575f80fd5b610e5e83610e29565b946020939093013593505050565b86815285602082015284604082015260c060608201525f610e9060c0830186610dab565b60808301949094525090151560a090910152949350505050565b5f8083601f840112610eba575f80fd5b50813567ffffffffffffffff811115610ed1575f80fd5b602083019150836020828501011115610ee8575f80fd5b9250929050565b5f805f805f60808688031215610f03575f80fd5b853594506020860135935060408601359250606086013567ffffffffffffffff811115610f2e575f80fd5b610f3a88828901610eaa565b969995985093965092949392505050565b5f805f60408486031215610f5d575f80fd5b833567ffffffffffffffff811115610f73575f80fd5b610f7f86828701610eaa565b909790965060209590950135949350505050565b5f8060408385031215610fa4575f80fd5b50508035926020909101359150565b5f8060408385031215610fc4575f80fd5b82359150610fd460208401610e29565b90509250929050565b600181811c90821680610ff157607f821691505b60208210810361100f57634e487b7160e01b5f52602260045260245ffd5b50919050565b634e487b7160e01b5f52603260045260245ffd5b634e487b7160e01b5f52604160045260245ffd5b601f82111561108457805f5260205f20601f840160051c810160208510156110625750805b601f840160051c820191505b81811015611081575f815560010161106e565b50505b505050565b815167ffffffffffffffff8111156110a3576110a3611029565b6110b7816110b18454610fdd565b8461103d565b602080601f8311600181146110ea575f84156110d35750858301515b5f19600386901b1c1916600185901b178555611141565b5f85815260208120601f198616915b82811015611118578886015182559484019460019091019084016110f9565b508582101561113557878501515f19600388901b60f8161c191681555b505060018460011b0185555b505050505050565b8481526001600160a01b03841660208201526060604082018190528101829052818360808301375f818301608090810191909152601f909201601f191601019392505050565b634e487b7160e01b5f52601160045260245ffd5b5f600182016111b4576111b461118f565b5060010190565b80820281158282048414176111d2576111d261118f565b92915050565b808201808211156111d2576111d261118f565b5f8261120557634e487b7160e01b5f52601260045260245ffd5b500490565b818103818111156111d2576111d261118f56fea2646970667358221220ee51747445521dc708181f8f428d02af239de5b114dd0c05de7f880b1c797b1364736f6c63430008180033",
  "linkReferences": {},
  "deployedLinkReferences": {}
}